{"abi":[{"type":"constructor","inputs":[],"stateMutability":"nonpayable"},{"type":"function","name":"BADGE_ASSESSED","inputs":[],"outputs":[{"name":"","type":"uint256","internalType":"uint256"}],"stateMutability":"view"},{"type":"function","name":"BADGE_CERTIFIED","inputs":[],"outputs":[{"name":"","type":"uint256","internalType":"uint256"}],"stateMutability":"view"},{"type":"function","name":"BADGE_READY","inputs":[],"outputs":[{"name":"","type":"uint256","internalType":"uint256"}],"stateMutability":"view"},{"type":"function","name":"DEFAULT_ADMIN_ROLE","inputs":[],"outputs":[{"name":"","type":"bytes32","internalType":"bytes32"}],"stateMutability":"view"},{"type":"function","name":"MAX_BADGE_TYPES","inputs":[],"outputs":[{"name":"","type":"uint256","internalType":"uint256"}],"stateMutability":"view"},{"type":"function","name":"MINTER_ROLE","inputs":[],"outputs":[{"name":"","type":"bytes32","internalType":"bytes32"}],"stateMutability":"view"},{"type":"function","name":"REGION_AFRICA","inputs":[],"outputs":[{"name":"","type":"uint256","internalType":"uint256"}],"stateMutability":"view"},{"type":"function","name":"REGION_ASIA","inputs":[],"outputs":[{"name":"","type":"uint256","internalType":"uint256"}],"stateMutability":"view"},{"type":"function","name":"REGION_GLOBAL","inputs":[],"outputs":[{"name":"","type":"uint256","internalType":"uint256"}],"stateMutability":"view"},{"type":"function","name":"addBadgeType","inputs":[],"outputs":[],"stateMutability":"nonpayable"},{"type":"function","name":"approve","inputs":[{"name":"to","type":"address","internalType":"address"},{"name":"tokenId","type":"uint256","internalType":"uint256"}],"outputs":[],"stateMutability":"nonpayable"},{"type":"function","name":"balanceOf","inputs":[{"name":"owner","type":"address","internalType":"address"}],"outputs":[{"name":"","type":"uint256","internalType":"uint256"}],"stateMutability":"view"},{"type":"function","name":"batchMintBadges","inputs":[{"name":"to","type":"address","internalType":"address"},{"name":"badgeTypes","type":"uint256[]","internalType":"uint256[]"},{"name":"region","type":"uint256","internalType":"uint256"}],"outputs":[],"stateMutability":"nonpayable"},{"type":"function","name":"burnBadge","inputs":[{"name":"tokenId","type":"uint256","internalType":"uint256"}],"outputs":[],"stateMutability":"nonpayable"},{"type":"function","name":"getApproved","inputs":[{"name":"tokenId","type":"uint256","internalType":"uint256"}],"outputs":[{"name":"","type":"address","internalType":"address"}],"stateMutability":"view"},{"type":"function","name":"getBadgeName","inputs":[{"name":"badgeType","type":"uint256","internalType":"uint256"}],"outputs":[{"name":"","type":"string","internalType":"string"}],"stateMutability":"pure"},{"type":"function","name":"getRoleAdmin","inputs":[{"name":"role","type":"bytes32","internalType":"bytes32"}],"outputs":[{"name":"","type":"bytes32","internalType":"bytes32"}],"stateMutability":"view"},{"type":"function","name":"getUserBadges","inputs":[{"name":"user","type":"address","internalType":"address"}],"outputs":[{"name":"","type":"uint256[]","internalType":"uint256[]"}],"stateMutability":"view"},{"type":"function","name":"grantMinterRole","inputs":[{"name":"minter","type":"address","internalType":"address"}],"outputs":[],"stateMutability":"nonpayable"},{"type":"function","name":"grantRole","inputs":[{"name":"role","type":"bytes32","internalType":"bytes32"},{"name":"account","type":"address","internalType":"address"}],"outputs":[],"stateMutability":"nonpayable"},{"type":"function","name":"hasBadge","inputs":[{"name":"","type":"address","internalType":"address"},{"name":"","type":"uint256","internalType":"uint256"}],"outputs":[{"name":"","type":"bool","internalType":"bool"}],"stateMutability":"view"},{"type":"function","name":"hasRole","inputs":[{"name":"role","type":"bytes32","internalType":"bytes32"},{"name":"account","type":"address","internalType":"address"}],"outputs":[{"name":"","type":"bool","internalType":"bool"}],"stateMutability":"view"},{"type":"function","name":"isApprovedForAll","inputs":[{"name":"owner","type":"address","internalType":"address"},{"name":"operator","type":"address","internalType":"address"}],"outputs":[{"name":"","type":"bool","internalType":"bool"}],"stateMutability":"view"},{"type":"function","name":"mintBadge","inputs":[{"name":"to","type":"address","internalType":"address"},{"name":"badgeType","type":"uint256","internalType":"uint256"},{"name":"region","type":"uint256","internalType":"uint256"}],"outputs":[],"stateMutability":"nonpayable"},{"type":"function","name":"name","inputs":[],"outputs":[{"name":"","type":"string","internalType":"string"}],"stateMutability":"view"},{"type":"function","name":"nextBadgeType","inputs":[],"outputs":[{"name":"","type":"uint256","internalType":"uint256"}],"stateMutability":"view"},{"type":"function","name":"ownerOf","inputs":[{"name":"tokenId","type":"uint256","internalType":"uint256"}],"outputs":[{"name":"","type":"address","internalType":"address"}],"stateMutability":"view"},{"type":"function","name":"pause","inputs":[],"outputs":[],"stateMutability":"nonpayable"},{"type":"function","name":"paused","inputs":[],"outputs":[{"name":"","type":"bool","internalType":"bool"}],"stateMutability":"view"},{"type":"function","name":"renounceRole","inputs":[{"name":"role","type":"bytes32","internalType":"bytes32"},{"name":"callerConfirmation","type":"address","internalType":"address"}],"outputs":[],"stateMutability":"nonpayable"},{"type":"function","name":"revokeMinterRole","inputs":[{"name":"minter","type":"address","internalType":"address"}],"outputs":[],"stateMutability":"nonpayable"},{"type":"function","name":"revokeRole","inputs":[{"name":"role","type":"bytes32","internalType":"bytes32"},{"name":"account","type":"address","internalType":"address"}],"outputs":[],"stateMutability":"nonpayable"},{"type":"function","name":"safeTransferFrom","inputs":[{"name":"from","type":"address","internalType":"address"},{"name":"to","type":"address","internalType":"address"},{"name":"tokenId","type":"uint256","internalType":"uint256"}],"outputs":[],"stateMutability":"nonpayable"},{"type":"function","name":"safeTransferFrom","inputs":[{"name":"from","type":"address","internalType":"address"},{"name":"to","type":"address","internalType":"address"},{"name":"tokenId","type":"uint256","internalType":"uint256"},{"name":"data","type":"bytes","internalType":"bytes"}],"outputs":[],"stateMutability":"nonpayable"},{"type":"function","name":"setApprovalForAll","inputs":[{"name":"operator","type":"address","internalType":"address"},{"name":"approved","type":"bool","internalType":"bool"}],"outputs":[],"stateMutability":"nonpayable"},{"type":"function","name":"setBaseURI","inputs":[{"name":"newBaseURI","type":"string","internalType":"string"}],"outputs":[],"stateMutability":"nonpayable"},{"type":"function","name":"supportsInterface","inputs":[{"name":"interfaceId","type":"bytes4","internalType":"bytes4"}],"outputs":[{"name":"","type":"bool","internalType":"bool"}],"stateMutability":"view"},{"type":"function","name":"symbol","inputs":[],"outputs":[{"name":"","type":"string","internalType":"string"}],"stateMutability":"view"},{"type":"function","name":"tokenBadgeType","inputs":[{"name":"","type":"uint256","internalType":"uint256"}],"outputs":[{"name":"","type":"uint256","internalType":"uint256"}],"stateMutability":"view"},{"type":"function","name":"tokenRegion","inputs":[{"name":"","type":"uint256","internalType":"uint256"}],"outputs":[{"name":"","type":"uint256","internalType":"uint256"}],"stateMutability":"view"},{"type":"function","name":"tokenURI","inputs":[{"name":"tokenId","type":"uint256","internalType":"uint256"}],"outputs":[{"name":"","type":"string","internalType":"string"}],"stateMutability":"view"},{"type":"function","name":"transferFrom","inputs":[{"name":"from","type":"address","internalType":"address"},{"name":"to","type":"address","internalType":"address"},{"name":"tokenId","type":"uint256","internalType":"uint256"}],"outputs":[],"stateMutability":"nonpayable"},{"type":"function","name":"unpause","inputs":[],"outputs":[],"stateMutability":"nonpayable"},{"type":"function","name":"userHasBadge","inputs":[{"name":"user","type":"address","internalType":"address"},{"name":"badgeType","type":"uint256","internalType":"uint256"}],"outputs":[{"name":"","type":"bool","internalType":"bool"}],"stateMutability":"view"},{"type":"event","name":"Approval","inputs":[{"name":"owner","type":"address","indexed":true,"internalType":"address"},{"name":"approved","type":"address","indexed":true,"internalType":"address"},{"name":"tokenId","type":"uint256","indexed":true,"internalType":"uint256"}],"anonymous":false},{"type":"event","name":"ApprovalForAll","inputs":[{"name":"owner","type":"address","indexed":true,"internalType":"address"},{"name":"operator","type":"address","indexed":true,"internalType":"address"},{"name":"approved","type":"bool","indexed":false,"internalType":"bool"}],"anonymous":false},{"type":"event","name":"BadgeBurned","inputs":[{"name":"tokenId","type":"uint256","indexed":false,"internalType":"uint256"}],"anonymous":false},{"type":"event","name":"BadgeMinted","inputs":[{"name":"to","type":"address","indexed":true,"internalType":"address"},{"name":"tokenId","type":"uint256","indexed":false,"internalType":"uint256"},{"name":"badgeType","type":"uint256","indexed":false,"internalType":"uint256"},{"name":"region","type":"uint256","indexed":false,"internalType":"uint256"}],"anonymous":false},{"type":"event","name":"BadgeTypeAdded","inputs":[{"name":"newType","type":"uint256","indexed":false,"internalType":"uint256"}],"anonymous":false},{"type":"event","name":"Paused","inputs":[{"name":"account","type":"address","indexed":false,"internalType":"address"}],"anonymous":false},{"type":"event","name":"RoleAdminChanged","inputs":[{"name":"role","type":"bytes32","indexed":true,"internalType":"bytes32"},{"name":"previousAdminRole","type":"bytes32","indexed":true,"internalType":"bytes32"},{"name":"newAdminRole","type":"bytes32","indexed":true,"internalType":"bytes32"}],"anonymous":false},{"type":"event","name":"RoleGranted","inputs":[{"name":"role","type":"bytes32","indexed":true,"internalType":"bytes32"},{"name":"account","type":"address","indexed":true,"internalType":"address"},{"name":"sender","type":"address","indexed":true,"internalType":"address"}],"anonymous":false},{"type":"event","name":"RoleRevoked","inputs":[{"name":"role","type":"bytes32","indexed":true,"internalType":"bytes32"},{"name":"account","type":"address","indexed":true,"internalType":"address"},{"name":"sender","type":"address","indexed":true,"internalType":"address"}],"anonymous":false},{"type":"event","name":"Transfer","inputs":[{"name":"from","type":"address","indexed":true,"internalType":"address"},{"name":"to","type":"address","indexed":true,"internalType":"address"},{"name":"tokenId","type":"uint256","indexed":true,"internalType":"uint256"}],"anonymous":false},{"type":"event","name":"Unpaused","inputs":[{"name":"account","type":"address","indexed":false,"internalType":"address"}],"anonymous":false},{"type":"error","name":"AccessControlBadConfirmation","inputs":[]},{"type":"error","name":"AccessControlUnauthorizedAccount","inputs":[{"name":"account","type":"address","internalType":"address"},{"name":"neededRole","type":"bytes32","internalType":"bytes32"}]},{"type":"error","name":"ERC721IncorrectOwner","inputs":[{"name":"sender","type":"address","internalType":"address"},{"name":"tokenId","type":"uint256","internalType":"uint256"},{"name":"owner","type":"address","internalType":"address"}]},{"type":"error","name":"ERC721InsufficientApproval","inputs":[{"name":"operator","type":"address","internalType":"address"},{"name":"tokenId","type":"uint256","internalType":"uint256"}]},{"type":"error","name":"ERC721InvalidApprover","inputs":[{"name":"approver","type":"address","internalType":"address"}]},{"type":"error","name":"ERC721InvalidOperator","inputs":[{"name":"operator","type":"address","internalType":"address"}]},{"type":"error","name":"ERC721InvalidOwner","inputs":[{"name":"owner","type":"address","internalType":"address"}]},{"type":"error","name":"ERC721InvalidReceiver","inputs":[{"name":"receiver","type":"address","internalType":"address"}]},{"type":"error","name":"ERC721InvalidSender","inputs":[{"name":"sender","type":"address","internalType":"address"}]},{"type":"error","name":"ERC721NonexistentToken","inputs":[{"name":"tokenId","type":"uint256","internalType":"uint256"}]},{"type":"error","name":"EnforcedPause","inputs":[]},{"type":"error","name":"ExpectedPause","inputs":[]}],"bytecode":{"object":"0x600160085561010060405260436080818152906200253060a03960099062000028908262000243565b506004600d553480156200003a575f80fd5b506040518060400160405280601a81526020017f50726573686f7420416368696576656d656e74204261646765730000000000008152506040518060400160405280600781526020016614149154d213d560ca1b815250815f9081620000a1919062000243565b506001620000b0828262000243565b50620000c191505f905033620000f5565b50620000ee7f9f2df0fed2c77648de5860a4cc508cd0818c85b8b8a1ab4ceeef8d981c8956a633620000f5565b506200030f565b5f8281526006602090815260408083206001600160a01b038516845290915281205460ff166200019c575f8381526006602090815260408083206001600160a01b03861684529091529020805460ff19166001179055620001533390565b6001600160a01b0316826001600160a01b0316847f2f8788117e7eff1d82e926ec794901d17c78024a50270940304540a733656f0d60405160405180910390a45060016200019f565b505f5b92915050565b634e487b7160e01b5f52604160045260245ffd5b600181811c90821680620001ce57607f821691505b602082108103620001ed57634e487b7160e01b5f52602260045260245ffd5b50919050565b601f8211156200023e57805f5260205f20601f840160051c810160208510156200021a5750805b601f840160051c820191505b818110156200023b575f815560010162000226565b50505b505050565b81516001600160401b038111156200025f576200025f620001a5565b6200027781620002708454620001b9565b84620001f3565b602080601f831160018114620002ad575f8415620002955750858301515b5f19600386901b1c1916600185901b17855562000307565b5f85815260208120601f198616915b82811015620002dd57888601518255948401946001909101908401620002bc565b5085821015620002fb57878501515f19600388901b60f8161c191681555b505060018460011b0185555b505050505050565b612213806200031d5f395ff3fe608060405234801561000f575f80fd5b506004361061026b575f3560e01c80635c975abb1161014b578063a217fddf116100bf578063c87b56dd11610084578063c87b56dd14610561578063d1616395146103d1578063d539139314610574578063d547741f14610588578063df1c02991461059b578063e985e9c5146105a4575f80fd5b8063a217fddf14610484578063a22cb465146104fb578063b2b6b3e11461050e578063b88d4fde14610546578063c11b435c14610559575f80fd5b80637e516294116101105780637e516294146104b15780638456cb59146104b95780638530a3bf146104c157806391d14854146104e057806395d89b41146104f3578063a1ffc63414610355575f80fd5b80635c975abb146104665780636352211e14610471578063667fd9501461048457806369e2f0fb1461048b57806370a082311461049e575f80fd5b806338bca355116101e257806342842e0e116101a757806342842e0e146103d95780634579d076146103ec578063484ebb581461040b5780634c6a70ce1461041357806355de28ae1461044057806355f804b314610453575f80fd5b806338bca355146103905780633dd1eb61146103a35780633e4b0fad146103b65780633f4ba83a146103c9578063415a4e2c146103d1575f80fd5b806323b872dd1161023357806323b872dd146102ff578063248a9ca3146103125780632f2ff15d14610342578063302871071461035557806336568abe1461035d57806337c245fe14610370575f80fd5b806301ffc9a71461026f57806306fdde031461029757806307a43090146102ac578063081812fc146102c1578063095ea7b3146102ec575b5f80fd5b61028261027d366004611bb1565b6105b7565b60405190151581526020015b60405180910390f35b61029f6105c7565b60405161028e9190611c20565b6102bf6102ba366004611c4d565b610656565b005b6102d46102cf366004611c7d565b61082c565b6040516001600160a01b03909116815260200161028e565b6102bf6102fa366004611c94565b610853565b6102bf61030d366004611cbc565b610862565b610334610320366004611c7d565b5f9081526006602052604090206001015490565b60405190815260200161028e565b6102bf610350366004611cf5565b6108eb565b610334600181565b6102bf61036b366004611cf5565b61090f565b61038361037e366004611d1f565b610947565b60405161028e9190611d38565b61029f61039e366004611c7d565b610a56565b6102bf6103b1366004611d1f565b610afc565b6102bf6103c4366004611d7b565b610b1d565b6102bf610d64565b610334600281565b6102bf6103e7366004611cbc565b610d79565b6103346103fa366004611c7d565b600c6020525f908152604090205481565b6102bf610d93565b610282610421366004611c94565b600a60209081525f928352604080842090915290825290205460ff1681565b6102bf61044e366004611c7d565b610e42565b6102bf610461366004611e87565b610f42565b60075460ff16610282565b6102d461047f366004611c7d565b610f58565b6103345f81565b6102bf610499366004611d1f565b610f62565b6103346104ac366004611d1f565b610f83565b610334600381565b6102bf610fc8565b6103346104cf366004611c7d565b600b6020525f908152604090205481565b6102826104ee366004611cf5565b610fda565b61029f611004565b6102bf610509366004611ecc565b611013565b61028261051c366004611c94565b6001600160a01b03919091165f908152600a60209081526040808320938352929052205460ff1690565b6102bf610554366004611f05565b61101e565b610334600a81565b61029f61056f366004611c7d565b611036565b6103345f805160206121be83398151915281565b6102bf610596366004611cf5565b611106565b610334600d5481565b6102826105b2366004611f7c565b61112a565b5f6105c182611157565b92915050565b60605f80546105d590611fa4565b80601f016020809104026020016040519081016040528092919081815260200182805461060190611fa4565b801561064c5780601f106106235761010080835404028352916020019161064c565b820191905f5260205f20905b81548152906001019060200180831161062f57829003601f168201915b5050505050905090565b5f805160206121be83398151915261066d8161117b565b610675611185565b600183101580156106875750600d5483105b6106cd5760405162461bcd60e51b8152602060048201526012602482015271496e76616c6964206261646765207479706560701b60448201526064015b60405180910390fd5b600282111561070f5760405162461bcd60e51b815260206004820152600e60248201526d24b73b30b634b2103932b3b4b7b760911b60448201526064016106c4565b6001600160a01b0384165f908152600a6020908152604080832086845290915290205460ff16156107825760405162461bcd60e51b815260206004820152601b60248201527f5573657220616c7265616479206861732074686973206261646765000000000060448201526064016106c4565b600880545f918261079283611fdc565b9190505590506107a285826111ab565b6001600160a01b0385165f818152600a602090815260408083208884528252808320805460ff19166001179055848352600b8252808320889055600c82529182902086905581518481529081018790529081018590527f387bb3eb7501c3ed1b38da9521bab0a6604a0ec69bf681eab8c74ba6d3eea15a9060600160405180910390a25050505050565b5f610836826111c4565b505f828152600460205260409020546001600160a01b03166105c1565b61085e8282336111fc565b5050565b6001600160a01b03821661088b57604051633250574960e11b81525f60048201526024016106c4565b5f610897838333611209565b9050836001600160a01b0316816001600160a01b0316146108e5576040516364283d7b60e01b81526001600160a01b03808616600483015260248201849052821660448201526064016106c4565b50505050565b5f828152600660205260409020600101546109058161117b565b6108e583836112be565b6001600160a01b03811633146109385760405163334bd91960e11b815260040160405180910390fd5b610942828261134f565b505050565b60605f60015b600d54811015610998576001600160a01b0384165f908152600a6020908152604080832084845290915290205460ff1615610990578161098c81611fdc565b9250505b60010161094d565b505f8167ffffffffffffffff8111156109b3576109b3611e00565b6040519080825280602002602001820160405280156109dc578160200160208202803683370190505b5090505f60015b600d54811015610a4c576001600160a01b0386165f908152600a6020908152604080832084845290915290205460ff1615610a445780838381518110610a2b57610a2b612000565b602090810291909101015281610a4081611fdc565b9250505b6001016109e3565b5090949350505050565b606060018203610a84575050604080518082019091526008815267105cdcd95cdcd95960c21b602082015290565b60028203610aad575050604080518082019091526005815264526561647960d81b602082015290565b60038203610ada57505060408051808201909152600981526810d95c9d1a599a595960ba1b602082015290565b5050604080518082019091526006815265437573746f6d60d01b602082015290565b5f610b068161117b565b6109425f805160206121be833981519152836112be565b5f805160206121be833981519152610b348161117b565b610b3c611185565b6005831115610b815760405162461bcd60e51b81526020600482015260116024820152700a8dede40dac2dcf240d2dc40c4c2e8c6d607b1b60448201526064016106c4565b6002821115610bc35760405162461bcd60e51b815260206004820152600e60248201526d24b73b30b634b2103932b3b4b7b760911b60448201526064016106c4565b5f5b83811015610d5c575f858583818110610be057610be0612000565b90506020020135905060018110158015610bfb5750600d5481105b610c3c5760405162461bcd60e51b8152602060048201526012602482015271496e76616c6964206261646765207479706560701b60448201526064016106c4565b6001600160a01b0387165f908152600a6020908152604080832084845290915290205460ff1615610caf5760405162461bcd60e51b815260206004820152601b60248201527f5573657220616c7265616479206861732074686973206261646765000000000060448201526064016106c4565b600880545f9182610cbf83611fdc565b919050559050610ccf88826111ab565b6001600160a01b0388165f818152600a602090815260408083208684528252808320805460ff19166001179055848352600b8252808320869055600c82529182902088905581518481529081018590529081018790527f387bb3eb7501c3ed1b38da9521bab0a6604a0ec69bf681eab8c74ba6d3eea15a9060600160405180910390a25050600101610bc5565b505050505050565b5f610d6e8161117b565b610d766113ba565b50565b61094283838360405180602001604052805f81525061101e565b5f610d9d8161117b565b600a600d5410610def5760405162461bcd60e51b815260206004820152601760248201527f4d6178206261646765207479706573207265616368656400000000000000000060448201526064016106c4565b600d80545f9182610dff83611fdc565b9190505590507f7d44e3b4d14f7fc72353f4dad71a8d58f0e061e7d7a3aa46cd571a2654a166a181604051610e3691815260200190565b60405180910390a15050565b5f610e4c8161117b565b5f828152600260205260409020546001600160a01b0316610ea65760405162461bcd60e51b8152602060048201526014602482015273151bdad95b88191bd95cc81b9bdd08195e1a5cdd60621b60448201526064016106c4565b5f610eb083610f58565b5f848152600b6020526040902054909150610eca8461140c565b6001600160a01b0382165f908152600a602090815260408083208484528252808320805460ff19169055868352600b8252808320839055600c82528083209290925590518581527fe734e496a91063a9c63bfcf36a9afdcf8d72e5cc516842dd66a23ccb01d619cf910160405180910390a150505050565b5f610f4c8161117b565b60096109428382612058565b5f6105c1826111c4565b5f610f6c8161117b565b6109425f805160206121be8339815191528361134f565b5f6001600160a01b038216610fad576040516322718ad960e21b81525f60048201526024016106c4565b506001600160a01b03165f9081526003602052604090205490565b5f610fd28161117b565b610d76611444565b5f9182526006602090815260408084206001600160a01b0393909316845291905290205460ff1690565b6060600180546105d590611fa4565b61085e338383611481565b611029848484610862565b6108e5338585858561151f565b6060611041826111c4565b505f828152600b6020908152604080832054600c9092529091205460605f19820161108a57506040805180820190915260078152662d41667269636160c81b60208201526110c4565b600282036110b457506040805180820190915260058152642d4173696160d81b60208201526110c4565b5060408051602081019091525f81525b5f6110cd611645565b9050806110d985611654565b836040516020016110ec93929190612114565b604051602081830303815290604052945050505050919050565b5f828152600660205260409020600101546111208161117b565b6108e5838361134f565b6001600160a01b039182165f90815260056020908152604080832093909416825291909152205460ff1690565b5f6001600160e01b03198216637965db0b60e01b14806105c157506105c1826116e4565b610d768133611733565b60075460ff16156111a95760405163d93c066560e01b815260040160405180910390fd5b565b61085e828260405180602001604052805f81525061176c565b5f818152600260205260408120546001600160a01b0316806105c157604051637e27328960e01b8152600481018490526024016106c4565b6109428383836001611783565b5f828152600260205260408120546001600160a01b0316801580159061123757506001600160a01b03851615155b156112aa5760405162461bcd60e51b815260206004820152603760248201527f50726573686f74206261646765732061726520736f756c2d626f756e6420616e60448201527f642063616e6e6f74206265207472616e7366657272656400000000000000000060648201526084016106c4565b6112b5858585611887565b95945050505050565b5f6112c98383610fda565b611348575f8381526006602090815260408083206001600160a01b03861684529091529020805460ff191660011790556113003390565b6001600160a01b0316826001600160a01b0316847f2f8788117e7eff1d82e926ec794901d17c78024a50270940304540a733656f0d60405160405180910390a45060016105c1565b505f6105c1565b5f61135a8383610fda565b15611348575f8381526006602090815260408083206001600160a01b0386168085529252808320805460ff1916905551339286917ff6391f5c32d9c69d2a47ea670b442974b53935d1edc7fd64eb21e047a839171b9190a45060016105c1565b6113c2611979565b6007805460ff191690557f5db9ee0a495bf2e6ff9c91a7834c1ba4fdd244a5e8aa4e537bd38aeae4b073aa335b6040516001600160a01b03909116815260200160405180910390a1565b5f6114185f835f611209565b90506001600160a01b03811661085e57604051637e27328960e01b8152600481018390526024016106c4565b61144c611185565b6007805460ff191660011790557f62e78cea01bee320cd4e420270b5ea74000d11b0c9f74754ebdbfc544b05a2586113ef3390565b6001600160a01b0382166114b357604051630b61174360e31b81526001600160a01b03831660048201526024016106c4565b6001600160a01b038381165f81815260056020908152604080832094871680845294825291829020805460ff191686151590811790915591519182527f17307eab39ab6107e8899845ad3d59bd9653f200f220920489ca2b5937696c31910160405180910390a3505050565b6001600160a01b0383163b1561163e57604051630a85bd0160e11b81526001600160a01b0384169063150b7a0290611561908890889087908790600401612166565b6020604051808303815f875af192505050801561159b575060408051601f3d908101601f19168201909252611598918101906121a2565b60015b611602573d8080156115c8576040519150601f19603f3d011682016040523d82523d5f602084013e6115cd565b606091505b5080515f036115fa57604051633250574960e11b81526001600160a01b03851660048201526024016106c4565b805160208201fd5b6001600160e01b03198116630a85bd0160e11b14610d5c57604051633250574960e11b81526001600160a01b03851660048201526024016106c4565b5050505050565b6060600980546105d590611fa4565b60605f6116608361199c565b60010190505f8167ffffffffffffffff81111561167f5761167f611e00565b6040519080825280601f01601f1916602001820160405280156116a9576020820181803683370190505b5090508181016020015b5f19016f181899199a1a9b1b9c1cb0b131b232b360811b600a86061a8153600a85049450846116b357509392505050565b5f6001600160e01b031982166380ac58cd60e01b148061171457506001600160e01b03198216635b5e139f60e01b145b806105c157506301ffc9a760e01b6001600160e01b03198316146105c1565b61173d8282610fda565b61085e5760405163e2517d3f60e01b81526001600160a01b0382166004820152602481018390526044016106c4565b6117768383611a73565b610942335f85858561151f565b808061179757506001600160a01b03821615155b15611858575f6117a6846111c4565b90506001600160a01b038316158015906117d25750826001600160a01b0316816001600160a01b031614155b80156117e557506117e3818461112a565b155b1561180e5760405163a9fbf51f60e01b81526001600160a01b03841660048201526024016106c4565b81156118565783856001600160a01b0316826001600160a01b03167f8c5be1e5ebec7d5bd14f71427d1e84f3dd0314c0f7b2291e5b200ac8c7c3b92560405160405180910390a45b505b50505f90815260046020526040902080546001600160a01b0319166001600160a01b0392909216919091179055565b5f828152600260205260408120546001600160a01b03908116908316156118b3576118b3818486611ad4565b6001600160a01b038116156118ed576118ce5f855f80611783565b6001600160a01b0381165f90815260036020526040902080545f190190555b6001600160a01b0385161561191b576001600160a01b0385165f908152600360205260409020805460010190555b5f8481526002602052604080822080546001600160a01b0319166001600160a01b0389811691821790925591518793918516917fddf252ad1be2c89b69c2b068fc378daa952ba7f163c4a11628f55a4df523b3ef91a4949350505050565b60075460ff166111a957604051638dfc202b60e01b815260040160405180910390fd5b5f8072184f03e93ff9f4daa797ed6e38ed64bf6a1f0160401b83106119da5772184f03e93ff9f4daa797ed6e38ed64bf6a1f0160401b830492506040015b6d04ee2d6d415b85acef81000000008310611a06576d04ee2d6d415b85acef8100000000830492506020015b662386f26fc100008310611a2457662386f26fc10000830492506010015b6305f5e1008310611a3c576305f5e100830492506008015b6127108310611a5057612710830492506004015b60648310611a62576064830492506002015b600a83106105c15760010192915050565b6001600160a01b038216611a9c57604051633250574960e11b81525f60048201526024016106c4565b5f611aa883835f611209565b90506001600160a01b03811615610942576040516339e3563760e11b81525f60048201526024016106c4565b611adf838383611b38565b610942576001600160a01b038316611b0d57604051637e27328960e01b8152600481018290526024016106c4565b60405163177e802f60e01b81526001600160a01b0383166004820152602481018290526044016106c4565b5f6001600160a01b03831615801590611b945750826001600160a01b0316846001600160a01b03161480611b715750611b71848461112a565b80611b9457505f828152600460205260409020546001600160a01b038481169116145b949350505050565b6001600160e01b031981168114610d76575f80fd5b5f60208284031215611bc1575f80fd5b8135611bcc81611b9c565b9392505050565b5f5b83811015611bed578181015183820152602001611bd5565b50505f910152565b5f8151808452611c0c816020860160208601611bd3565b601f01601f19169290920160200192915050565b602081525f611bcc6020830184611bf5565b80356001600160a01b0381168114611c48575f80fd5b919050565b5f805f60608486031215611c5f575f80fd5b611c6884611c32565b95602085013595506040909401359392505050565b5f60208284031215611c8d575f80fd5b5035919050565b5f8060408385031215611ca5575f80fd5b611cae83611c32565b946020939093013593505050565b5f805f60608486031215611cce575f80fd5b611cd784611c32565b9250611ce560208501611c32565b9150604084013590509250925092565b5f8060408385031215611d06575f80fd5b82359150611d1660208401611c32565b90509250929050565b5f60208284031215611d2f575f80fd5b611bcc82611c32565b602080825282518282018190525f9190848201906040850190845b81811015611d6f57835183529284019291840191600101611d53565b50909695505050505050565b5f805f8060608587031215611d8e575f80fd5b611d9785611c32565b9350602085013567ffffffffffffffff80821115611db3575f80fd5b818701915087601f830112611dc6575f80fd5b813581811115611dd4575f80fd5b8860208260051b8501011115611de8575f80fd5b95986020929092019750949560400135945092505050565b634e487b7160e01b5f52604160045260245ffd5b5f67ffffffffffffffff80841115611e2e57611e2e611e00565b604051601f8501601f19908116603f01168101908282118183101715611e5657611e56611e00565b81604052809350858152868686011115611e6e575f80fd5b858560208301375f602087830101525050509392505050565b5f60208284031215611e97575f80fd5b813567ffffffffffffffff811115611ead575f80fd5b8201601f81018413611ebd575f80fd5b611b9484823560208401611e14565b5f8060408385031215611edd575f80fd5b611ee683611c32565b915060208301358015158114611efa575f80fd5b809150509250929050565b5f805f8060808587031215611f18575f80fd5b611f2185611c32565b9350611f2f60208601611c32565b925060408501359150606085013567ffffffffffffffff811115611f51575f80fd5b8501601f81018713611f61575f80fd5b611f7087823560208401611e14565b91505092959194509250565b5f8060408385031215611f8d575f80fd5b611f9683611c32565b9150611d1660208401611c32565b600181811c90821680611fb857607f821691505b602082108103611fd657634e487b7160e01b5f52602260045260245ffd5b50919050565b5f60018201611ff957634e487b7160e01b5f52601160045260245ffd5b5060010190565b634e487b7160e01b5f52603260045260245ffd5b601f82111561094257805f5260205f20601f840160051c810160208510156120395750805b601f840160051c820191505b8181101561163e575f8155600101612045565b815167ffffffffffffffff81111561207257612072611e00565b612086816120808454611fa4565b84612014565b602080601f8311600181146120b9575f84156120a25750858301515b5f19600386901b1c1916600185901b178555610d5c565b5f85815260208120601f198616915b828110156120e7578886015182559484019460019091019084016120c8565b508582101561210457878501515f19600388901b60f8161c191681555b5050505050600190811b01905550565b5f8451612125818460208901611bd3565b845190830190612139818360208901611bd3565b845191019061214c818360208801611bd3565b64173539b7b760d91b910190815260050195945050505050565b6001600160a01b03858116825284166020820152604081018390526080606082018190525f9061219890830184611bf5565b9695505050505050565b5f602082840312156121b2575f80fd5b8151611bcc81611b9c56fe9f2df0fed2c77648de5860a4cc508cd0818c85b8b8a1ab4ceeef8d981c8956a6a264697066735822122025cf897492f2ee43695ce00cea3350771b762f3a5be48f2447128f3a25ea0a9d64736f6c63430008180033697066733a2f2f626166796265696669716b676467713263746f70656c646374673670363269336e7878713637376d666168716a72356f666d7375687961346662652f","linkReferences":{}},"methodIdentifiers":{"BADGE_ASSESSED()":"a1ffc634","BADGE_CERTIFIED()":"7e516294","BADGE_READY()":"d1616395","DEFAULT_ADMIN_ROLE()":"a217fddf","MAX_BADGE_TYPES()":"c11b435c","MINTER_ROLE()":"d5391393","REGION_AFRICA()":"30287107","REGION_ASIA()":"415a4e2c","REGION_GLOBAL()":"667fd950","addBadgeType()":"484ebb58","approve(address,uint256)":"095ea7b3","balanceOf(address)":"70a08231","batchMintBadges(address,uint256[],uint256)":"3e4b0fad","burnBadge(uint256)":"55de28ae","getApproved(uint256)":"081812fc","getBadgeName(uint256)":"38bca355","getRoleAdmin(bytes32)":"248a9ca3","getUserBadges(address)":"37c245fe","grantMinterRole(address)":"3dd1eb61","grantRole(bytes32,address)":"2f2ff15d","hasBadge(address,uint256)":"4c6a70ce","hasRole(bytes32,address)":"91d14854","isApprovedForAll(address,address)":"e985e9c5","mintBadge(address,uint256,uint256)":"07a43090","name()":"06fdde03","nextBadgeType()":"df1c0299","ownerOf(uint256)":"6352211e","pause()":"8456cb59","paused()":"5c975abb","renounceRole(bytes32,address)":"36568abe","revokeMinterRole(address)":"69e2f0fb","revokeRole(bytes32,address)":"d547741f","safeTransferFrom(address,address,uint256)":"42842e0e","safeTransferFrom(address,address,uint256,bytes)":"b88d4fde","setApprovalForAll(address,bool)":"a22cb465","setBaseURI(string)":"55f804b3","supportsInterface(bytes4)":"01ffc9a7","symbol()":"95d89b41","tokenBadgeType(uint256)":"8530a3bf","tokenRegion(uint256)":"4579d076","tokenURI(uint256)":"c87b56dd","transferFrom(address,address,uint256)":"23b872dd","unpause()":"3f4ba83a","userHasBadge(address,uint256)":"b2b6b3e1"},"id":41}