{"abi":[{"type":"constructor","inputs":[{"name":"_badgesContract","type":"address","internalType":"address"}],"stateMutability":"nonpayable"},{"type":"function","name":"AI_SUBMITTER_ROLE","inputs":[],"outputs":[{"name":"","type":"bytes32","internalType":"bytes32"}],"stateMutability":"view"},{"type":"function","name":"DEFAULT_ADMIN_ROLE","inputs":[],"outputs":[{"name":"","type":"bytes32","internalType":"bytes32"}],"stateMutability":"view"},{"type":"function","name":"badgesContract","inputs":[],"outputs":[{"name":"","type":"address","internalType":"contract IPreshotBadges"}],"stateMutability":"view"},{"type":"function","name":"completedCourses","inputs":[{"name":"","type":"address","internalType":"address"}],"outputs":[{"name":"","type":"uint256","internalType":"uint256"}],"stateMutability":"view"},{"type":"function","name":"getAssessmentCount","inputs":[{"name":"user","type":"address","internalType":"address"}],"outputs":[{"name":"","type":"uint256","internalType":"uint256"}],"stateMutability":"view"},{"type":"function","name":"getLatestData","inputs":[{"name":"user","type":"address","internalType":"address"}],"outputs":[{"name":"","type":"string","internalType":"string"}],"stateMutability":"view"},{"type":"function","name":"getReadinessScore","inputs":[{"name":"user","type":"address","internalType":"address"}],"outputs":[{"name":"","type":"uint256","internalType":"uint256"}],"stateMutability":"view"},{"type":"function","name":"getRoleAdmin","inputs":[{"name":"role","type":"bytes32","internalType":"bytes32"}],"outputs":[{"name":"","type":"bytes32","internalType":"bytes32"}],"stateMutability":"view"},{"type":"function","name":"getUserData","inputs":[{"name":"user","type":"address","internalType":"address"}],"outputs":[{"name":"","type":"string[]","internalType":"string[]"}],"stateMutability":"view"},{"type":"function","name":"grantAISubmitterRole","inputs":[{"name":"submitter","type":"address","internalType":"address"}],"outputs":[],"stateMutability":"nonpayable"},{"type":"function","name":"grantRole","inputs":[{"name":"role","type":"bytes32","internalType":"bytes32"},{"name":"account","type":"address","internalType":"address"}],"outputs":[],"stateMutability":"nonpayable"},{"type":"function","name":"hasBeenAssessed","inputs":[{"name":"","type":"address","internalType":"address"}],"outputs":[{"name":"","type":"bool","internalType":"bool"}],"stateMutability":"view"},{"type":"function","name":"hasRole","inputs":[{"name":"role","type":"bytes32","internalType":"bytes32"},{"name":"account","type":"address","internalType":"address"}],"outputs":[{"name":"","type":"bool","internalType":"bool"}],"stateMutability":"view"},{"type":"function","name":"pause","inputs":[],"outputs":[],"stateMutability":"nonpayable"},{"type":"function","name":"paused","inputs":[],"outputs":[{"name":"","type":"bool","internalType":"bool"}],"stateMutability":"view"},{"type":"function","name":"readinessScores","inputs":[{"name":"","type":"address","internalType":"address"}],"outputs":[{"name":"","type":"uint256","internalType":"uint256"}],"stateMutability":"view"},{"type":"function","name":"recordCourseCompletion","inputs":[{"name":"user","type":"address","internalType":"address"},{"name":"region","type":"uint256","internalType":"uint256"}],"outputs":[],"stateMutability":"nonpayable"},{"type":"function","name":"renounceRole","inputs":[{"name":"role","type":"bytes32","internalType":"bytes32"},{"name":"callerConfirmation","type":"address","internalType":"address"}],"outputs":[],"stateMutability":"nonpayable"},{"type":"function","name":"revokeAISubmitterRole","inputs":[{"name":"submitter","type":"address","internalType":"address"}],"outputs":[],"stateMutability":"nonpayable"},{"type":"function","name":"revokeData","inputs":[{"name":"user","type":"address","internalType":"address"},{"name":"index","type":"uint256","internalType":"uint256"}],"outputs":[],"stateMutability":"nonpayable"},{"type":"function","name":"revokeRole","inputs":[{"name":"role","type":"bytes32","internalType":"bytes32"},{"name":"account","type":"address","internalType":"address"}],"outputs":[],"stateMutability":"nonpayable"},{"type":"function","name":"submitData","inputs":[{"name":"ipfsUrl","type":"string","internalType":"string"},{"name":"readinessScore","type":"uint256","internalType":"uint256"}],"outputs":[],"stateMutability":"nonpayable"},{"type":"function","name":"submitWithSignature","inputs":[{"name":"user","type":"address","internalType":"address"},{"name":"ipfsUrl","type":"string","internalType":"string"},{"name":"readinessScore","type":"uint256","internalType":"uint256"},{"name":"region","type":"uint256","internalType":"uint256"},{"name":"signature","type":"bytes","internalType":"bytes"}],"outputs":[],"stateMutability":"nonpayable"},{"type":"function","name":"supportsInterface","inputs":[{"name":"interfaceId","type":"bytes4","internalType":"bytes4"}],"outputs":[{"name":"","type":"bool","internalType":"bool"}],"stateMutability":"view"},{"type":"function","name":"unpause","inputs":[],"outputs":[],"stateMutability":"nonpayable"},{"type":"function","name":"updateBadgesContract","inputs":[{"name":"_badgesContract","type":"address","internalType":"address"}],"outputs":[],"stateMutability":"nonpayable"},{"type":"function","name":"userDataUrls","inputs":[{"name":"","type":"address","internalType":"address"},{"name":"","type":"uint256","internalType":"uint256"}],"outputs":[{"name":"","type":"string","internalType":"string"}],"stateMutability":"view"},{"type":"function","name":"userNonces","inputs":[{"name":"","type":"address","internalType":"address"}],"outputs":[{"name":"","type":"uint256","internalType":"uint256"}],"stateMutability":"view"},{"type":"event","name":"BadgeMinted","inputs":[{"name":"user","type":"address","indexed":true,"internalType":"address"},{"name":"badgeType","type":"uint256","indexed":false,"internalType":"uint256"},{"name":"reason","type":"string","indexed":false,"internalType":"string"}],"anonymous":false},{"type":"event","name":"DataRevoked","inputs":[{"name":"user","type":"address","indexed":true,"internalType":"address"},{"name":"index","type":"uint256","indexed":false,"internalType":"uint256"},{"name":"revokedUrl","type":"string","indexed":false,"internalType":"string"}],"anonymous":false},{"type":"event","name":"DataSubmitted","inputs":[{"name":"user","type":"address","indexed":true,"internalType":"address"},{"name":"ipfsUrl","type":"string","indexed":false,"internalType":"string"},{"name":"timestamp","type":"uint256","indexed":false,"internalType":"uint256"},{"name":"readinessScore","type":"uint256","indexed":false,"internalType":"uint256"}],"anonymous":false},{"type":"event","name":"Paused","inputs":[{"name":"account","type":"address","indexed":false,"internalType":"address"}],"anonymous":false},{"type":"event","name":"ReadinessScoreUpdated","inputs":[{"name":"user","type":"address","indexed":true,"internalType":"address"},{"name":"oldScore","type":"uint256","indexed":false,"internalType":"uint256"},{"name":"newScore","type":"uint256","indexed":false,"internalType":"uint256"}],"anonymous":false},{"type":"event","name":"RoleAdminChanged","inputs":[{"name":"role","type":"bytes32","indexed":true,"internalType":"bytes32"},{"name":"previousAdminRole","type":"bytes32","indexed":true,"internalType":"bytes32"},{"name":"newAdminRole","type":"bytes32","indexed":true,"internalType":"bytes32"}],"anonymous":false},{"type":"event","name":"RoleGranted","inputs":[{"name":"role","type":"bytes32","indexed":true,"internalType":"bytes32"},{"name":"account","type":"address","indexed":true,"internalType":"address"},{"name":"sender","type":"address","indexed":true,"internalType":"address"}],"anonymous":false},{"type":"event","name":"RoleRevoked","inputs":[{"name":"role","type":"bytes32","indexed":true,"internalType":"bytes32"},{"name":"account","type":"address","indexed":true,"internalType":"address"},{"name":"sender","type":"address","indexed":true,"internalType":"address"}],"anonymous":false},{"type":"event","name":"Unpaused","inputs":[{"name":"account","type":"address","indexed":false,"internalType":"address"}],"anonymous":false},{"type":"error","name":"AccessControlBadConfirmation","inputs":[]},{"type":"error","name":"AccessControlUnauthorizedAccount","inputs":[{"name":"account","type":"address","internalType":"address"},{"name":"neededRole","type":"bytes32","internalType":"bytes32"}]},{"type":"error","name":"ECDSAInvalidSignature","inputs":[]},{"type":"error","name":"ECDSAInvalidSignatureLength","inputs":[{"name":"length","type":"uint256","internalType":"uint256"}]},{"type":"error","name":"ECDSAInvalidSignatureS","inputs":[{"name":"s","type":"bytes32","internalType":"bytes32"}]},{"type":"error","name":"EnforcedPause","inputs":[]},{"type":"error","name":"ExpectedPause","inputs":[]}],"bytecode":{"object":"0x608060405234801562000010575f80fd5b5060405162001eba38038062001eba833981016040819052620000339162000112565b6200003f5f3362000066565b50600480546001600160a01b0319166001600160a01b039290921691909117905562000141565b5f828152602081815260408083206001600160a01b038516845290915281205460ff1662000109575f838152602081815260408083206001600160a01b03861684529091529020805460ff19166001179055620000c03390565b6001600160a01b0316826001600160a01b0316847f2f8788117e7eff1d82e926ec794901d17c78024a50270940304540a733656f0d60405160405180910390a45060016200010c565b505f5b92915050565b5f6020828403121562000123575f80fd5b81516001600160a01b03811681146200013a575f80fd5b9392505050565b611d6b806200014f5f395ff3fe608060405234801561000f575f80fd5b50600436106101bb575f3560e01c80638456cb59116100f3578063ae031ed311610093578063d7866c5c1161006e578063d7866c5c14610413578063eaa4eb4414610427578063f2f201dc1461043a578063ffc9896b1461044d575f80fd5b8063ae031ed3146103da578063b10ca46d146103ed578063d547741f14610400575f80fd5b80639b426826116100ce5780639b4268261461038e5780639d961e83146103a1578063a217fddf146103b4578063a3b5c013146103bb575f80fd5b80638456cb591461034857806391d148541461035057806397d3b9ec14610363575f80fd5b80633f4ba83a1161015e57806358f6ecc41161013957806358f6ecc4146102dc5780635c975abb146102fe57806364e90426146103095780638062b91a14610329575f80fd5b80633f4ba83a1461029957806341e89586146102a157806341f0db60146102c9575f80fd5b80632f2ff15d116101995780632f2ff15d1461022c5780632f7801f41461023f57806332cc0b481461025e57806336568abe14610286575f80fd5b806301ffc9a7146101bf5780630b05f6dc146101e7578063248a9ca3146101fc575b5f80fd5b6101d26101cd3660046116c4565b61046d565b60405190151581526020015b60405180910390f35b6101fa6101f536600461170d565b61047d565b005b61021e61020a366004611735565b5f9081526020819052604090206001015490565b6040519081526020016101de565b6101fa61023a36600461174c565b6105c2565b61021e61024d366004611776565b60076020525f908152604090205481565b61021e61026c366004611776565b6001600160a01b03165f9081526002602052604090205490565b6101fa61029436600461174c565b6105ec565b6101fa61061f565b61021e6102af366004611776565b6001600160a01b03165f9081526003602052604090205490565b6101fa6102d7366004611834565b610634565b6101d26102ea366004611776565b60056020525f908152604090205460ff1681565b60015460ff166101d2565b61031c61031736600461170d565b610853565b6040516101de9190611916565b61021e610337366004611776565b60066020525f908152604090205481565b6101fa610904565b6101d261035e36600461174c565b610916565b600454610376906001600160a01b031681565b6040516001600160a01b0390911681526020016101de565b6101fa61039c366004611776565b61093e565b6101fa6103af366004611928565b61095f565b61021e5f81565b61021e6103c9366004611776565b60036020525f908152604090205481565b6101fa6103e836600461170d565b610a08565b6101fa6103fb366004611776565b610c24565b6101fa61040e36600461174c565b610c51565b61021e5f80516020611d1683398151915281565b6101fa610435366004611776565b610c75565b61031c610448366004611776565b610c96565b61046061045b366004611776565b610dc4565b6040516101de919061196a565b5f61047782610eae565b92915050565b5f80516020611d1683398151915261049481610ee2565b61049c610eec565b6001600160a01b0383165f9081526006602052604081208054916104bf836119e0565b90915550506001600160a01b0383165f908152600660205260409020546003116105bd5760048054604051627a430960e41b81526001600160a01b03909116916307a43090916105169187916003918891016119f8565b5f604051808303815f87803b15801561052d575f80fd5b505af192505050801561053e575060015b156105bd57826001600160a01b03167f6854c057dc92416510857b3daad5434a4202a4d192cf0f85d496d91974efaea360036040516105b4918152604060208201819052601c908201527f436f6d706c6574656420332b206d696e6473657420636f757273657300000000606082015260800190565b60405180910390a25b505050565b5f828152602081905260409020600101546105dc81610ee2565b6105e68383610f12565b50505050565b6001600160a01b03811633146106155760405163334bd91960e11b815260040160405180910390fd5b6105bd8282610fa1565b5f61062981610ee2565b61063161100a565b50565b5f80516020611d1683398151915261064b81610ee2565b610653610eec565b5f8551116106a35760405162461bcd60e51b8152602060048201526018602482015277495046532055524c2063616e6e6f7420626520656d70747960401b60448201526064015b60405180910390fd5b60648411156106ea5760405162461bcd60e51b8152602060048201526013602482015272053636f7265206d75737420626520302d31303606c1b604482015260640161069a565b600283111561072c5760405162461bcd60e51b815260206004820152600e60248201526d24b73b30b634b2103932b3b4b7b760911b604482015260640161069a565b6001600160a01b0386165f908152600760209081526040808320549051909291610760918a918a918a918a91889101611a19565b6040516020818303038152906040528051906020012090505f6107af827f19457468657265756d205369676e6564204d6573736167653a0a3332000000005f908152601c91909152603c902090565b90505f6107bc828761105c565b9050896001600160a01b0316816001600160a01b0316146108135760405162461bcd60e51b8152602060048201526011602482015270496e76616c6964207369676e617475726560781b604482015260640161069a565b6001600160a01b038a165f908152600760205260408120805491610836836119e0565b91905055506108478a8a8a8a611084565b50505050505050505050565b6002602052815f5260405f20818154811061086c575f80fd5b905f5260205f20015f9150915050805461088590611a64565b80601f01602080910402602001604051908101604052809291908181526020018280546108b190611a64565b80156108fc5780601f106108d3576101008083540402835291602001916108fc565b820191905f5260205f20905b8154815290600101906020018083116108df57829003601f168201915b505050505081565b5f61090e81610ee2565b610631611166565b5f918252602082815260408084206001600160a01b0393909316845291905290205460ff1690565b5f61094881610ee2565b6105bd5f80516020611d1683398151915283610f12565b610967610eec565b5f8251116109b25760405162461bcd60e51b8152602060048201526018602482015277495046532055524c2063616e6e6f7420626520656d70747960401b604482015260640161069a565b60648111156109f95760405162461bcd60e51b8152602060048201526013602482015272053636f7265206d75737420626520302d31303606c1b604482015260640161069a565b610a043383836111a1565b5050565b5f610a1281610ee2565b6001600160a01b0383165f90815260026020526040902080548310610a695760405162461bcd60e51b815260206004820152600d60248201526c092dcecc2d8d2c840d2dcc8caf609b1b604482015260640161069a565b5f818481548110610a7c57610a7c611a9c565b905f5260205f20018054610a8f90611a64565b80601f0160208091040260200160405190810160405280929190818152602001828054610abb90611a64565b8015610b065780601f10610add57610100808354040283529160200191610b06565b820191905f5260205f20905b815481529060010190602001808311610ae957829003601f168201915b509394508793505050505b8254610b1f90600190611ab0565b811015610b795782610b32826001611ac3565b81548110610b4257610b42611a9c565b905f5260205f2001838281548110610b5c57610b5c611a9c565b905f5260205f20019081610b709190611b1a565b50600101610b11565b5081805480610b8a57610b8a611bef565b600190038181905f5260205f20015f610ba3919061167a565b9055846001600160a01b03167fd6e4e5eebd2ab93b54fe24143a0990aedf924289fad81196fe1ee9a699fe30808583604051610be0929190611c03565b60405180910390a281545f03610c1d576001600160a01b0385165f90815260036020908152604080832083905560059091529020805460ff191690555b5050505050565b5f610c2e81610ee2565b50600480546001600160a01b0319166001600160a01b0392909216919091179055565b5f82815260208190526040902060010154610c6b81610ee2565b6105e68383610fa1565b5f610c7f81610ee2565b6105bd5f80516020611d1683398151915283610fa1565b6001600160a01b0381165f908152600260209081526040808320805482518185028101850190935280835260609493849084015b82821015610d72578382905f5260205f20018054610ce790611a64565b80601f0160208091040260200160405190810160405280929190818152602001828054610d1390611a64565b8015610d5e5780601f10610d3557610100808354040283529160200191610d5e565b820191905f5260205f20905b815481529060010190602001808311610d4157829003601f168201915b505050505081526020019060010190610cca565b50505050905080515f03610d9557505060408051602081019091525f8152919050565b8060018251610da49190611ab0565b81518110610db457610db4611a9c565b6020026020010151915050919050565b6001600160a01b0381165f908152600260209081526040808320805482518185028101850190935280835260609492939192909184015b82821015610ea3578382905f5260205f20018054610e1890611a64565b80601f0160208091040260200160405190810160405280929190818152602001828054610e4490611a64565b8015610e8f5780601f10610e6657610100808354040283529160200191610e8f565b820191905f5260205f20905b815481529060010190602001808311610e7257829003601f168201915b505050505081526020019060010190610dfb565b505050509050919050565b5f6001600160e01b03198216637965db0b60e01b148061047757506301ffc9a760e01b6001600160e01b0319831614610477565b61063181336111ad565b60015460ff1615610f105760405163d93c066560e01b815260040160405180910390fd5b565b5f610f1d8383610916565b610f9a575f838152602081815260408083206001600160a01b03861684529091529020805460ff19166001179055610f523390565b6001600160a01b0316826001600160a01b0316847f2f8788117e7eff1d82e926ec794901d17c78024a50270940304540a733656f0d60405160405180910390a4506001610477565b505f610477565b5f610fac8383610916565b15610f9a575f838152602081815260408083206001600160a01b0386168085529252808320805460ff1916905551339286917ff6391f5c32d9c69d2a47ea670b442974b53935d1edc7fd64eb21e047a839171b9190a4506001610477565b6110126111e6565b6001805460ff191690557f5db9ee0a495bf2e6ff9c91a7834c1ba4fdd244a5e8aa4e537bd38aeae4b073aa335b6040516001600160a01b03909116815260200160405180910390a1565b5f805f8061106a8686611209565b92509250925061107a8282611252565b5090949350505050565b6001600160a01b0384165f9081526003602090815260408083205460028352908320805460018101825590845291909220016110c08582611c23565b506001600160a01b0385165f8181526003602052604090819020859055517f6c1216036c184d02910bdd0c55b60727a6bd6947079020a7f71bc45efece918b9061110f90879042908890611cdd565b60405180910390a260408051828152602081018590526001600160a01b038716917fd811709c4213ea916164efb38423af8f77d09b19b701ed196719ba30d8030848910160405180910390a2610c1d85848461130a565b61116e610eec565b6001805460ff1916811790557f62e78cea01bee320cd4e420270b5ea74000d11b0c9f74754ebdbfc544b05a2583361103f565b6105bd8383835f611084565b6111b78282610916565b610a045760405163e2517d3f60e01b81526001600160a01b03821660048201526024810183905260440161069a565b60015460ff16610f1057604051638dfc202b60e01b815260040160405180910390fd5b5f805f8351604103611240576020840151604085015160608601515f1a611232888285856115b2565b95509550955050505061124b565b505081515f91506002905b9250925092565b5f82600381111561126557611265611d01565b0361126e575050565b600182600381111561128257611282611d01565b036112a05760405163f645eedf60e01b815260040160405180910390fd5b60028260038111156112b4576112b4611d01565b036112d55760405163fce698f760e01b81526004810182905260240161069a565b60038260038111156112e9576112e9611d01565b03610a04576040516335e2f38360e21b81526004810182905260240161069a565b60048054604051627a430960e41b81526001600160a01b03909116916307a430909161133d9187916001918791016119f8565b5f604051808303815f87803b158015611354575f80fd5b505af1925050508015611365575060015b506001600160a01b0383165f9081526005602052604090205460ff1661147e576001600160a01b038084165f9081526005602052604090819020805460ff19166001908117909155600480549251627a430960e41b815292909316926307a43090926113d792889290918791016119f8565b5f604051808303815f87803b1580156113ee575f80fd5b505af19250505080156113ff575060015b1561147e57826001600160a01b03167f6854c057dc92416510857b3daad5434a4202a4d192cf0f85d496d91974efaea36001604051611475918152604060208201819052601a908201527f436f6d706c65746564206669727374206173736573736d656e74000000000000606082015260800190565b60405180910390a25b604682106115605760048054604051627a430960e41b81526001600160a01b03909116916307a43090916114b99187916002918791016119f8565b5f604051808303815f87803b1580156114d0575f80fd5b505af19250505080156114e1575060015b1561156057826001600160a01b03167f6854c057dc92416510857b3daad5434a4202a4d192cf0f85d496d91974efaea36002604051611557918152604060208201819052601c908201527f41636869657665642037302b2072656164696e6573732073636f726500000000606082015260800190565b60405180910390a25b6001600160a01b0383165f908152600660205260409020546003116105bd5760048054604051627a430960e41b81526001600160a01b03909116916307a43090916105169187916003918791016119f8565b5f80807f7fffffffffffffffffffffffffffffff5d576e7357a4501ddfe92f46681b20a08411156115eb57505f91506003905082611670565b604080515f808252602082018084528a905260ff891692820192909252606081018790526080810186905260019060a0016020604051602081039080840390855afa15801561163c573d5f803e3d5ffd5b5050604051601f1901519150506001600160a01b03811661166757505f925060019150829050611670565b92505f91508190505b9450945094915050565b50805461168690611a64565b5f825580601f10611695575050565b601f0160209004905f5260205f209081019061063191905b808211156116c0575f81556001016116ad565b5090565b5f602082840312156116d4575f80fd5b81356001600160e01b0319811681146116eb575f80fd5b9392505050565b80356001600160a01b0381168114611708575f80fd5b919050565b5f806040838503121561171e575f80fd5b611727836116f2565b946020939093013593505050565b5f60208284031215611745575f80fd5b5035919050565b5f806040838503121561175d575f80fd5b8235915061176d602084016116f2565b90509250929050565b5f60208284031215611786575f80fd5b6116eb826116f2565b634e487b7160e01b5f52604160045260245ffd5b5f67ffffffffffffffff808411156117bd576117bd61178f565b604051601f8501601f19908116603f011681019082821181831017156117e5576117e561178f565b816040528093508581528686860111156117fd575f80fd5b858560208301375f602087830101525050509392505050565b5f82601f830112611825575f80fd5b6116eb838335602085016117a3565b5f805f805f60a08688031215611848575f80fd5b611851866116f2565b9450602086013567ffffffffffffffff8082111561186d575f80fd5b61187989838a01611816565b95506040880135945060608801359350608088013591508082111561189c575f80fd5b508601601f810188136118ad575f80fd5b6118bc888235602084016117a3565b9150509295509295909350565b5f5b838110156118e35781810151838201526020016118cb565b50505f910152565b5f81518084526119028160208601602086016118c9565b601f01601f19169290920160200192915050565b602081525f6116eb60208301846118eb565b5f8060408385031215611939575f80fd5b823567ffffffffffffffff81111561194f575f80fd5b61195b85828601611816565b95602094909401359450505050565b5f60208083016020845280855180835260408601915060408160051b8701019250602087015f5b828110156119bf57603f198886030184526119ad8583516118eb565b94509285019290850190600101611991565b5092979650505050505050565b634e487b7160e01b5f52601160045260245ffd5b5f600182016119f1576119f16119cc565b5060010190565b6001600160a01b039390931683526020830191909152604082015260600190565b6bffffffffffffffffffffffff198660601b1681525f8551611a42816014850160208a016118c9565b6014920191820194909452603481019290925260548201526074019392505050565b600181811c90821680611a7857607f821691505b602082108103611a9657634e487b7160e01b5f52602260045260245ffd5b50919050565b634e487b7160e01b5f52603260045260245ffd5b81810381811115610477576104776119cc565b80820180821115610477576104776119cc565b601f8211156105bd57805f5260205f20601f840160051c81016020851015611afb5750805b601f840160051c820191505b81811015610c1d575f8155600101611b07565b818103611b25575050565b611b2f8254611a64565b67ffffffffffffffff811115611b4757611b4761178f565b611b5b81611b558454611a64565b84611ad6565b5f601f821160018114611b8c575f8315611b755750848201545b5f19600385901b1c1916600184901b178455610c1d565b5f8581526020808220868352908220601f198616925b83811015611bc25782860154825560019586019590910190602001611ba2565b5085831015611bdf57818501545f19600388901b60f8161c191681555b5050505050600190811b01905550565b634e487b7160e01b5f52603160045260245ffd5b828152604060208201525f611c1b60408301846118eb565b949350505050565b815167ffffffffffffffff811115611c3d57611c3d61178f565b611c4b81611b558454611a64565b602080601f831160018114611c7e575f8415611c675750858301515b5f19600386901b1c1916600185901b178555611cd5565b5f85815260208120601f198616915b82811015611cac57888601518255948401946001909101908401611c8d565b5085821015611cc957878501515f19600388901b60f8161c191681555b505060018460011b0185555b505050505050565b606081525f611cef60608301866118eb565b60208301949094525060400152919050565b634e487b7160e01b5f52602160045260245ffdfee085348739b3c8cd4e5206f98af385af9e77913b703b01cd9da223d5d2eb1517a2646970667358221220e4d1a0c42c1899d2f38a5030238c6bb6bbe325a19dd15d36bd309c87c9b5b30d64736f6c63430008180033","linkReferences":{}},"methodIdentifiers":{"AI_SUBMITTER_ROLE()":"d7866c5c","DEFAULT_ADMIN_ROLE()":"a217fddf","badgesContract()":"97d3b9ec","completedCourses(address)":"8062b91a","getAssessmentCount(address)":"32cc0b48","getLatestData(address)":"f2f201dc","getReadinessScore(address)":"41e89586","getRoleAdmin(bytes32)":"248a9ca3","getUserData(address)":"ffc9896b","grantAISubmitterRole(address)":"9b426826","grantRole(bytes32,address)":"2f2ff15d","hasBeenAssessed(address)":"58f6ecc4","hasRole(bytes32,address)":"91d14854","pause()":"8456cb59","paused()":"5c975abb","readinessScores(address)":"a3b5c013","recordCourseCompletion(address,uint256)":"0b05f6dc","renounceRole(bytes32,address)":"36568abe","revokeAISubmitterRole(address)":"eaa4eb44","revokeData(address,uint256)":"ae031ed3","revokeRole(bytes32,address)":"d547741f","submitData(string,uint256)":"9d961e83","submitWithSignature(address,string,uint256,uint256,bytes)":"41f0db60","supportsInterface(bytes4)":"01ffc9a7","unpause()":"3f4ba83a","updateBadgesContract(address)":"b10ca46d","userDataUrls(address,uint256)":"64e90426","userNonces(address)":"2f7801f4"},"id":42}